{
  "_format": "hh-sol-artifact-1",
  "contractName": "BlindReview",
  "sourceName": "contracts/BlindReview.sol",
  "abi": [
    {
      "inputs": [],
      "stateMutability": "nonpayable",
      "type": "constructor"
    },
    {
      "inputs": [],
      "name": "EnforcedPause",
      "type": "error"
    },
    {
      "inputs": [],
      "name": "ExpectedPause",
      "type": "error"
    },
    {
      "inputs": [],
      "name": "InvalidKMSSignatures",
      "type": "error"
    },
    {
      "inputs": [
        {
          "internalType": "address",
          "name": "owner",
          "type": "address"
        }
      ],
      "name": "OwnableInvalidOwner",
      "type": "error"
    },
    {
      "inputs": [
        {
          "internalType": "address",
          "name": "account",
          "type": "address"
        }
      ],
      "name": "OwnableUnauthorizedAccount",
      "type": "error"
    },
    {
      "inputs": [],
      "name": "ReentrancyGuardReentrantCall",
      "type": "error"
    },
    {
      "inputs": [
        {
          "internalType": "bytes32",
          "name": "handle",
          "type": "bytes32"
        },
        {
          "internalType": "address",
          "name": "sender",
          "type": "address"
        }
      ],
      "name": "SenderNotAllowedToUseHandle",
      "type": "error"
    },
    {
      "inputs": [],
      "name": "ZamaProtocolUnsupported",
      "type": "error"
    },
    {
      "anonymous": false,
      "inputs": [
        {
          "indexed": true,
          "internalType": "uint256",
          "name": "reviewId",
          "type": "uint256"
        },
        {
          "indexed": false,
          "internalType": "enum BlindReview.AutoAdvanceAction",
          "name": "action",
          "type": "uint8"
        },
        {
          "indexed": false,
          "internalType": "uint32",
          "name": "weightedScore",
          "type": "uint32"
        }
      ],
      "name": "AutoAdvanceTriggered",
      "type": "event"
    },
    {
      "anonymous": false,
      "inputs": [
        {
          "indexed": true,
          "internalType": "uint256",
          "name": "reviewId",
          "type": "uint256"
        },
        {
          "indexed": false,
          "internalType": "uint256",
          "name": "oldDeadline",
          "type": "uint256"
        },
        {
          "indexed": false,
          "internalType": "uint256",
          "name": "newDeadline",
          "type": "uint256"
        },
        {
          "indexed": false,
          "internalType": "address",
          "name": "admin",
          "type": "address"
        }
      ],
      "name": "DeadlineExtended",
      "type": "event"
    },
    {
      "anonymous": false,
      "inputs": [
        {
          "indexed": true,
          "internalType": "address",
          "name": "previousOwner",
          "type": "address"
        },
        {
          "indexed": true,
          "internalType": "address",
          "name": "newOwner",
          "type": "address"
        }
      ],
      "name": "OwnershipTransferred",
      "type": "event"
    },
    {
      "anonymous": false,
      "inputs": [
        {
          "indexed": false,
          "internalType": "address",
          "name": "account",
          "type": "address"
        }
      ],
      "name": "Paused",
      "type": "event"
    },
    {
      "anonymous": false,
      "inputs": [
        {
          "indexed": false,
          "internalType": "bytes32[]",
          "name": "handlesList",
          "type": "bytes32[]"
        },
        {
          "indexed": false,
          "internalType": "bytes",
          "name": "abiEncodedCleartexts",
          "type": "bytes"
        }
      ],
      "name": "PublicDecryptionVerified",
      "type": "event"
    },
    {
      "anonymous": false,
      "inputs": [
        {
          "indexed": true,
          "internalType": "uint256",
          "name": "reviewId",
          "type": "uint256"
        },
        {
          "indexed": false,
          "internalType": "bytes32[10]",
          "name": "handles",
          "type": "bytes32[10]"
        }
      ],
      "name": "RevealRequested",
      "type": "event"
    },
    {
      "anonymous": false,
      "inputs": [
        {
          "indexed": true,
          "internalType": "uint256",
          "name": "reviewId",
          "type": "uint256"
        },
        {
          "indexed": false,
          "internalType": "uint16",
          "name": "sumProblemSolving",
          "type": "uint16"
        },
        {
          "indexed": false,
          "internalType": "uint16",
          "name": "sumTechnicalDepth",
          "type": "uint16"
        },
        {
          "indexed": false,
          "internalType": "uint16",
          "name": "sumCommunication",
          "type": "uint16"
        },
        {
          "indexed": false,
          "internalType": "uint16",
          "name": "sumCollaboration",
          "type": "uint16"
        },
        {
          "indexed": false,
          "internalType": "uint16",
          "name": "sumCultureGrowth",
          "type": "uint16"
        },
        {
          "indexed": false,
          "internalType": "uint16",
          "name": "sumSqProblemSolving",
          "type": "uint16"
        },
        {
          "indexed": false,
          "internalType": "uint16",
          "name": "sumSqTechnicalDepth",
          "type": "uint16"
        },
        {
          "indexed": false,
          "internalType": "uint16",
          "name": "sumSqCommunication",
          "type": "uint16"
        },
        {
          "indexed": false,
          "internalType": "uint16",
          "name": "sumSqCollaboration",
          "type": "uint16"
        },
        {
          "indexed": false,
          "internalType": "uint16",
          "name": "sumSqCultureGrowth",
          "type": "uint16"
        },
        {
          "indexed": false,
          "internalType": "uint256",
          "name": "reviewerCount",
          "type": "uint256"
        },
        {
          "indexed": false,
          "internalType": "uint8[8]",
          "name": "tagCounts",
          "type": "uint8[8]"
        }
      ],
      "name": "Revealed",
      "type": "event"
    },
    {
      "anonymous": false,
      "inputs": [
        {
          "indexed": true,
          "internalType": "uint256",
          "name": "reviewId",
          "type": "uint256"
        },
        {
          "indexed": true,
          "internalType": "address",
          "name": "admin",
          "type": "address"
        },
        {
          "indexed": false,
          "internalType": "uint8",
          "name": "submittedCountAtCancellation",
          "type": "uint8"
        }
      ],
      "name": "ReviewCancelled",
      "type": "event"
    },
    {
      "anonymous": false,
      "inputs": [
        {
          "indexed": true,
          "internalType": "uint256",
          "name": "reviewId",
          "type": "uint256"
        },
        {
          "indexed": true,
          "internalType": "address",
          "name": "admin",
          "type": "address"
        },
        {
          "indexed": false,
          "internalType": "string",
          "name": "candidateRef",
          "type": "string"
        },
        {
          "indexed": false,
          "internalType": "string",
          "name": "role",
          "type": "string"
        },
        {
          "indexed": false,
          "internalType": "uint8",
          "name": "roundNumber",
          "type": "uint8"
        },
        {
          "indexed": false,
          "internalType": "uint256",
          "name": "reviewerCount",
          "type": "uint256"
        },
        {
          "indexed": false,
          "internalType": "uint256",
          "name": "deadline",
          "type": "uint256"
        }
      ],
      "name": "ReviewCreated",
      "type": "event"
    },
    {
      "anonymous": false,
      "inputs": [
        {
          "indexed": true,
          "internalType": "uint256",
          "name": "reviewId",
          "type": "uint256"
        },
        {
          "indexed": true,
          "internalType": "address",
          "name": "oldReviewer",
          "type": "address"
        },
        {
          "indexed": true,
          "internalType": "address",
          "name": "newReviewer",
          "type": "address"
        },
        {
          "indexed": false,
          "internalType": "address",
          "name": "admin",
          "type": "address"
        }
      ],
      "name": "ReviewerReplaced",
      "type": "event"
    },
    {
      "anonymous": false,
      "inputs": [
        {
          "indexed": true,
          "internalType": "uint256",
          "name": "reviewId",
          "type": "uint256"
        },
        {
          "indexed": true,
          "internalType": "address",
          "name": "reviewer",
          "type": "address"
        },
        {
          "indexed": false,
          "internalType": "uint8",
          "name": "submittedCount",
          "type": "uint8"
        },
        {
          "indexed": false,
          "internalType": "uint256",
          "name": "reviewerCount",
          "type": "uint256"
        }
      ],
      "name": "ScoreSubmitted",
      "type": "event"
    },
    {
      "anonymous": false,
      "inputs": [
        {
          "indexed": false,
          "internalType": "address",
          "name": "account",
          "type": "address"
        }
      ],
      "name": "Unpaused",
      "type": "event"
    },
    {
      "inputs": [],
      "name": "BASIS_POINTS",
      "outputs": [
        {
          "internalType": "uint16",
          "name": "",
          "type": "uint16"
        }
      ],
      "stateMutability": "view",
      "type": "function"
    },
    {
      "inputs": [],
      "name": "CATEGORY_COUNT",
      "outputs": [
        {
          "internalType": "uint8",
          "name": "",
          "type": "uint8"
        }
      ],
      "stateMutability": "view",
      "type": "function"
    },
    {
      "inputs": [],
      "name": "MAX_EXTENSION",
      "outputs": [
        {
          "internalType": "uint256",
          "name": "",
          "type": "uint256"
        }
      ],
      "stateMutability": "view",
      "type": "function"
    },
    {
      "inputs": [],
      "name": "MAX_REVIEWERS",
      "outputs": [
        {
          "internalType": "uint8",
          "name": "",
          "type": "uint8"
        }
      ],
      "stateMutability": "view",
      "type": "function"
    },
    {
      "inputs": [],
      "name": "MAX_ROUNDS_PER_CANDIDATE",
      "outputs": [
        {
          "internalType": "uint8",
          "name": "",
          "type": "uint8"
        }
      ],
      "stateMutability": "view",
      "type": "function"
    },
    {
      "inputs": [],
      "name": "MIN_DEADLINE_GAP",
      "outputs": [
        {
          "internalType": "uint256",
          "name": "",
          "type": "uint256"
        }
      ],
      "stateMutability": "view",
      "type": "function"
    },
    {
      "inputs": [],
      "name": "MIN_REVIEWERS",
      "outputs": [
        {
          "internalType": "uint8",
          "name": "",
          "type": "uint8"
        }
      ],
      "stateMutability": "view",
      "type": "function"
    },
    {
      "inputs": [],
      "name": "NUM_TAGS",
      "outputs": [
        {
          "internalType": "uint8",
          "name": "",
          "type": "uint8"
        }
      ],
      "stateMutability": "view",
      "type": "function"
    },
    {
      "inputs": [
        {
          "internalType": "uint256",
          "name": "reviewId",
          "type": "uint256"
        }
      ],
      "name": "cancelReview",
      "outputs": [],
      "stateMutability": "nonpayable",
      "type": "function"
    },
    {
      "inputs": [],
      "name": "confidentialProtocolId",
      "outputs": [
        {
          "internalType": "uint256",
          "name": "",
          "type": "uint256"
        }
      ],
      "stateMutability": "view",
      "type": "function"
    },
    {
      "inputs": [
        {
          "internalType": "string",
          "name": "candidateRef",
          "type": "string"
        },
        {
          "internalType": "string",
          "name": "role",
          "type": "string"
        },
        {
          "internalType": "address[]",
          "name": "reviewerList",
          "type": "address[]"
        },
        {
          "internalType": "uint256",
          "name": "deadline",
          "type": "uint256"
        },
        {
          "components": [
            {
              "internalType": "uint16",
              "name": "problemSolving",
              "type": "uint16"
            },
            {
              "internalType": "uint16",
              "name": "technicalDepth",
              "type": "uint16"
            },
            {
              "internalType": "uint16",
              "name": "communication",
              "type": "uint16"
            },
            {
              "internalType": "uint16",
              "name": "collaboration",
              "type": "uint16"
            },
            {
              "internalType": "uint16",
              "name": "cultureGrowth",
              "type": "uint16"
            }
          ],
          "internalType": "struct BlindReview.CategoryWeights",
          "name": "weights",
          "type": "tuple"
        },
        {
          "components": [
            {
              "internalType": "bool",
              "name": "enabled",
              "type": "bool"
            },
            {
              "internalType": "uint32",
              "name": "passThreshold",
              "type": "uint32"
            },
            {
              "internalType": "uint32",
              "name": "failThreshold",
              "type": "uint32"
            },
            {
              "internalType": "enum BlindReview.AutoAdvanceAction",
              "name": "passAction",
              "type": "uint8"
            },
            {
              "internalType": "enum BlindReview.AutoAdvanceAction",
              "name": "failAction",
              "type": "uint8"
            }
          ],
          "internalType": "struct BlindReview.AutoAdvanceRule",
          "name": "advanceRule",
          "type": "tuple"
        }
      ],
      "name": "createReview",
      "outputs": [
        {
          "internalType": "uint256",
          "name": "reviewId",
          "type": "uint256"
        }
      ],
      "stateMutability": "nonpayable",
      "type": "function"
    },
    {
      "inputs": [
        {
          "internalType": "uint256",
          "name": "reviewId",
          "type": "uint256"
        },
        {
          "internalType": "uint256",
          "name": "newDeadline",
          "type": "uint256"
        }
      ],
      "name": "extendDeadline",
      "outputs": [],
      "stateMutability": "nonpayable",
      "type": "function"
    },
    {
      "inputs": [
        {
          "internalType": "uint256",
          "name": "reviewId",
          "type": "uint256"
        }
      ],
      "name": "getAutoAdvanceRule",
      "outputs": [
        {
          "components": [
            {
              "internalType": "bool",
              "name": "enabled",
              "type": "bool"
            },
            {
              "internalType": "uint32",
              "name": "passThreshold",
              "type": "uint32"
            },
            {
              "internalType": "uint32",
              "name": "failThreshold",
              "type": "uint32"
            },
            {
              "internalType": "enum BlindReview.AutoAdvanceAction",
              "name": "passAction",
              "type": "uint8"
            },
            {
              "internalType": "enum BlindReview.AutoAdvanceAction",
              "name": "failAction",
              "type": "uint8"
            }
          ],
          "internalType": "struct BlindReview.AutoAdvanceRule",
          "name": "",
          "type": "tuple"
        }
      ],
      "stateMutability": "view",
      "type": "function"
    },
    {
      "inputs": [
        {
          "internalType": "string",
          "name": "candidateRef",
          "type": "string"
        }
      ],
      "name": "getCandidateRounds",
      "outputs": [
        {
          "internalType": "uint256[]",
          "name": "",
          "type": "uint256[]"
        }
      ],
      "stateMutability": "view",
      "type": "function"
    },
    {
      "inputs": [
        {
          "internalType": "uint256",
          "name": "reviewId",
          "type": "uint256"
        }
      ],
      "name": "getCategoryWeights",
      "outputs": [
        {
          "components": [
            {
              "internalType": "uint16",
              "name": "problemSolving",
              "type": "uint16"
            },
            {
              "internalType": "uint16",
              "name": "technicalDepth",
              "type": "uint16"
            },
            {
              "internalType": "uint16",
              "name": "communication",
              "type": "uint16"
            },
            {
              "internalType": "uint16",
              "name": "collaboration",
              "type": "uint16"
            },
            {
              "internalType": "uint16",
              "name": "cultureGrowth",
              "type": "uint16"
            }
          ],
          "internalType": "struct BlindReview.CategoryWeights",
          "name": "",
          "type": "tuple"
        }
      ],
      "stateMutability": "view",
      "type": "function"
    },
    {
      "inputs": [
        {
          "internalType": "uint256",
          "name": "reviewId",
          "type": "uint256"
        }
      ],
      "name": "getMyTagMask",
      "outputs": [
        {
          "internalType": "uint8",
          "name": "",
          "type": "uint8"
        }
      ],
      "stateMutability": "view",
      "type": "function"
    },
    {
      "inputs": [
        {
          "internalType": "uint256",
          "name": "reviewId",
          "type": "uint256"
        }
      ],
      "name": "getRevealHandles",
      "outputs": [
        {
          "internalType": "bytes32[10]",
          "name": "",
          "type": "bytes32[10]"
        }
      ],
      "stateMutability": "view",
      "type": "function"
    },
    {
      "inputs": [
        {
          "internalType": "uint256",
          "name": "reviewId",
          "type": "uint256"
        }
      ],
      "name": "getRevealedScores",
      "outputs": [
        {
          "internalType": "uint16",
          "name": "sumProblemSolving",
          "type": "uint16"
        },
        {
          "internalType": "uint16",
          "name": "sumTechnicalDepth",
          "type": "uint16"
        },
        {
          "internalType": "uint16",
          "name": "sumCommunication",
          "type": "uint16"
        },
        {
          "internalType": "uint16",
          "name": "sumCollaboration",
          "type": "uint16"
        },
        {
          "internalType": "uint16",
          "name": "sumCultureGrowth",
          "type": "uint16"
        },
        {
          "internalType": "uint16",
          "name": "sumSqProblemSolving",
          "type": "uint16"
        },
        {
          "internalType": "uint16",
          "name": "sumSqTechnicalDepth",
          "type": "uint16"
        },
        {
          "internalType": "uint16",
          "name": "sumSqCommunication",
          "type": "uint16"
        },
        {
          "internalType": "uint16",
          "name": "sumSqCollaboration",
          "type": "uint16"
        },
        {
          "internalType": "uint16",
          "name": "sumSqCultureGrowth",
          "type": "uint16"
        },
        {
          "internalType": "uint256",
          "name": "reviewerCount",
          "type": "uint256"
        },
        {
          "internalType": "uint8[8]",
          "name": "tagCounts",
          "type": "uint8[8]"
        }
      ],
      "stateMutability": "view",
      "type": "function"
    },
    {
      "inputs": [
        {
          "internalType": "uint256",
          "name": "reviewId",
          "type": "uint256"
        }
      ],
      "name": "getReviewSummary",
      "outputs": [
        {
          "internalType": "address",
          "name": "admin",
          "type": "address"
        },
        {
          "internalType": "string",
          "name": "candidateRef",
          "type": "string"
        },
        {
          "internalType": "string",
          "name": "role",
          "type": "string"
        },
        {
          "internalType": "uint8",
          "name": "roundNumber",
          "type": "uint8"
        },
        {
          "internalType": "uint256",
          "name": "deadline",
          "type": "uint256"
        },
        {
          "internalType": "uint256",
          "name": "reviewerCount",
          "type": "uint256"
        },
        {
          "internalType": "uint8",
          "name": "submittedCount",
          "type": "uint8"
        },
        {
          "internalType": "enum BlindReview.ReviewStatus",
          "name": "status",
          "type": "uint8"
        },
        {
          "internalType": "bool",
          "name": "extensionUsed",
          "type": "bool"
        }
      ],
      "stateMutability": "view",
      "type": "function"
    },
    {
      "inputs": [
        {
          "internalType": "uint256",
          "name": "reviewId",
          "type": "uint256"
        }
      ],
      "name": "getReviewers",
      "outputs": [
        {
          "internalType": "address[]",
          "name": "",
          "type": "address[]"
        }
      ],
      "stateMutability": "view",
      "type": "function"
    },
    {
      "inputs": [
        {
          "internalType": "uint256",
          "name": "reviewId",
          "type": "uint256"
        },
        {
          "internalType": "address",
          "name": "account",
          "type": "address"
        }
      ],
      "name": "hasReviewerSubmitted",
      "outputs": [
        {
          "internalType": "bool",
          "name": "",
          "type": "bool"
        }
      ],
      "stateMutability": "view",
      "type": "function"
    },
    {
      "inputs": [
        {
          "internalType": "uint256",
          "name": "reviewId",
          "type": "uint256"
        },
        {
          "internalType": "address",
          "name": "account",
          "type": "address"
        }
      ],
      "name": "isInvitedReviewer",
      "outputs": [
        {
          "internalType": "bool",
          "name": "",
          "type": "bool"
        }
      ],
      "stateMutability": "view",
      "type": "function"
    },
    {
      "inputs": [],
      "name": "nextReviewId",
      "outputs": [
        {
          "internalType": "uint256",
          "name": "",
          "type": "uint256"
        }
      ],
      "stateMutability": "view",
      "type": "function"
    },
    {
      "inputs": [],
      "name": "owner",
      "outputs": [
        {
          "internalType": "address",
          "name": "",
          "type": "address"
        }
      ],
      "stateMutability": "view",
      "type": "function"
    },
    {
      "inputs": [],
      "name": "pause",
      "outputs": [],
      "stateMutability": "nonpayable",
      "type": "function"
    },
    {
      "inputs": [],
      "name": "paused",
      "outputs": [
        {
          "internalType": "bool",
          "name": "",
          "type": "bool"
        }
      ],
      "stateMutability": "view",
      "type": "function"
    },
    {
      "inputs": [],
      "name": "renounceOwnership",
      "outputs": [],
      "stateMutability": "nonpayable",
      "type": "function"
    },
    {
      "inputs": [
        {
          "internalType": "uint256",
          "name": "reviewId",
          "type": "uint256"
        },
        {
          "internalType": "address",
          "name": "oldReviewer",
          "type": "address"
        },
        {
          "internalType": "address",
          "name": "newReviewer",
          "type": "address"
        }
      ],
      "name": "replaceReviewer",
      "outputs": [],
      "stateMutability": "nonpayable",
      "type": "function"
    },
    {
      "inputs": [
        {
          "internalType": "uint256",
          "name": "reviewId",
          "type": "uint256"
        }
      ],
      "name": "requestReveal",
      "outputs": [],
      "stateMutability": "nonpayable",
      "type": "function"
    },
    {
      "inputs": [
        {
          "internalType": "uint256",
          "name": "reviewId",
          "type": "uint256"
        },
        {
          "internalType": "bytes",
          "name": "abiEncodedClearValues",
          "type": "bytes"
        },
        {
          "internalType": "bytes",
          "name": "decryptionProof",
          "type": "bytes"
        }
      ],
      "name": "submitRevealedScores",
      "outputs": [],
      "stateMutability": "nonpayable",
      "type": "function"
    },
    {
      "inputs": [
        {
          "internalType": "uint256",
          "name": "reviewId",
          "type": "uint256"
        },
        {
          "internalType": "externalEuint16",
          "name": "problemSolving",
          "type": "bytes32"
        },
        {
          "internalType": "externalEuint16",
          "name": "technicalDepth",
          "type": "bytes32"
        },
        {
          "internalType": "externalEuint16",
          "name": "communication",
          "type": "bytes32"
        },
        {
          "internalType": "externalEuint16",
          "name": "collaboration",
          "type": "bytes32"
        },
        {
          "internalType": "externalEuint16",
          "name": "cultureGrowth",
          "type": "bytes32"
        },
        {
          "internalType": "bytes",
          "name": "inputProof",
          "type": "bytes"
        },
        {
          "internalType": "uint8",
          "name": "tagMask",
          "type": "uint8"
        }
      ],
      "name": "submitScores",
      "outputs": [],
      "stateMutability": "nonpayable",
      "type": "function"
    },
    {
      "inputs": [
        {
          "internalType": "address",
          "name": "newOwner",
          "type": "address"
        }
      ],
      "name": "transferOwnership",
      "outputs": [],
      "stateMutability": "nonpayable",
      "type": "function"
    },
    {
      "inputs": [],
      "name": "unpause",
      "outputs": [],
      "stateMutability": "nonpayable",
      "type": "function"
    }
  ],
  "bytecode": "0x6080604052346102a4576100116102db565b50466001036101c0576100226102db565b5061002b6102a8565b73ca2e8f1f656cd25c01f05d0b243ab1ecd4a8ffb6815273d82385dada1ae3e969447f20a3164f6213100e7560208201527377627828a55156b04ac0dc0eb30467f1a552bb0360408201525b80517f9e7b61f58c47dc699ac88507c4f5bb9f121c03808c5676a8078fe583e464970080546001600160a01b03199081166001600160a01b039384161790915560208301517f9e7b61f58c47dc699ac88507c4f5bb9f121c03808c5676a8078fe583e4649701805483169184169190911790556040909201517f9e7b61f58c47dc699ac88507c4f5bb9f121c03808c5676a8078fe583e46497028054909316911617905560017f9b779b17422d0df92223018b32b4d1fa46e071723d6817e2486d003becc55f005533156101ad575f8054610100600160a81b0319811633600881811b610100600160a81b031692909217845560405193909290911c6001600160a01b0316907f8be0079c531659141344cd1fd0a4f28419497f9722a3daafe3b4186f6b6457e09080a361369290816102f68239f35b631e4fbdf760e01b5f525f60045260245ffd5b4662aa36a70361022b576101d26102db565b506101db6102a8565b73f0ffdc93b7e186bc2f8cb3daa75d86d1930a433d81527392c920834ec8941d2c77d188936e1f7a6f49c127602082015273be0e383937d564d7ff0bc3b46c51f0bf8d5c311a6040820152610077565b46617a69036102955761023c6102db565b506102456102a8565b7350157cffd6bbfa2dece204a89ec419c23ef5755d815273e3a9105a3a932253a70f126eb1e3b589c643dd24602082015273901f8942346f7ab3a01f6d7613119bca447bb0306040820152610077565b6373cac13b60e01b5f5260045ffd5b5f80fd5b60405190606082016001600160401b038111838210176102c757604052565b634e487b7160e01b5f52604160045260245ffd5b6102e36102a8565b905f82525f60208301525f604083015256fe60c06040526004361015610011575f80fd5b5f3560e01c806302afb4b414612ac957806318efb58a146129dc5780632afa0313146128615780632d1fdef61461268457806339241d2d146121c8578063396e77e7146121ab5780633d866a0e146121625780633f4ba83a146120fe57806340261cdd14611eb857806355a7b53614611e9c5780635c975abb14611e7b57806367a419e414611dad578063692f49b61461133f5780636dc6afc814610c28578063715018a614610bcd5780637f4080c714610b845780637f9599c714610a2f5780638456cb59146109d8578063860eb1a51461091957806387d508e6146108fe5780638927b030146108dc5780638d56894b146108c15780638da5cb5b1461089657806393a101f614610879578063a7902bd3146107c5578063c7334bb3146107aa578063cc8ccb9614610479578063e143067c1461038c578063e1f1c4a714610370578063ec9c0f3114610259578063f2fde38b146101be578063fc52a27c146101a35763fdf9329414610184575f80fd5b3461019f575f36600319011261019f576020604051600a8152f35b5f80fd5b3461019f575f36600319011261019f57602060405160088152f35b3461019f57602036600319011261019f576004356001600160a01b0381169081810361019f576101ec613460565b8115610246575f8054610100600160a81b03198116600893841b610100600160a81b031617825590911c6001600160a01b0316907f8be0079c531659141344cd1fd0a4f28419497f9722a3daafe3b4186f6b6457e09080a3005b631e4fbdf760e01b5f525f60045260245ffd5b3461019f57602036600319011261019f57600435610140908160405161027f8282612d2a565b3690375f818152600160205260409020546102a4906001600160a01b03161515612ccb565b805f52600160205260ff601e60405f200154166102c081612bca565b6001811490811561035c575b5015610321575f526001602052601460405f20016102ed6040518092612f14565b6102f78282612d2a565b604051905f825b600a821061030b57505050f35b60208060019285518152019301910190916102fe565b60405162461bcd60e51b81526020600482015260136024820152721a185b991b195cc81b9bdd081e595d081cd95d606a1b6044820152606490fd5b6002915061036981612bca565b14836102cc565b3461019f575f36600319011261019f5760206040516127108152f35b3461019f57602036600319011261019f576004356103a86130a4565b505f818152600160205260409020546103cb906001600160a01b03161515612ccb565b5f52600160205260a0600960405f2001604051906103e882612d0f565b5460ff811615158252602082019063ffffffff8160081c16825263ffffffff60408401818360281c1681528160ff808560481c1694606088019561042b81612bca565b865260501c1694608087019561044081612bca565b865260405196511515875251166020860152511660408401525161046381612bca565b60608301525161047281612bca565b6080820152f35b3461019f57606036600319011261019f57600435610495612cb5565b6044356001600160a01b03811692919083900361019f576104b46130ce565b6104bc6130e8565b5f828152600160205260409020546104de906001600160a01b03161515612ccb565b815f5260016020526104fd60018060a01b0360405f2054163314612e23565b815f52600160205260405f209161052460ff601e8501541661051e81612bca565b15612e6f565b805f52600260205260405f2060018060a01b0383165f5260205260ff60405f2054161561076557805f52600360205260405f2060018060a01b0383165f5260205260ff60405f2054166107205783156106db57825461058e906001600160a01b0316851415612f97565b805f52600260205260405f20845f5260205260ff60405f205416610696575f8181526002602090815260408083206001600160a01b039590951680845294909152808220805460ff1990811690915586835290822080549091166001179055600493909301925b835481101561068d5782610609828661304f565b905460039190911b1c6001600160a01b031614610628576001016105f5565b61063391929361304f565b81546001600160a01b0360039290921b91821b19169085901b1790555b7f0bcfe54297a9e93d39312ca81efe15fd56db1725a80af6c5c907a974f4bf4f0e6020604051338152a460015f51602061363d5f395f51905f5255005b50909150610650565b60405162461bcd60e51b815260206004820152601d60248201527f6e657720726576696577657220616c7265616479206f6e2070616e656c0000006044820152606490fd5b60405162461bcd60e51b815260206004820152601960248201527f7a65726f206e65772072657669657765722061646472657373000000000000006044820152606490fd5b60405162461bcd60e51b815260206004820152601e60248201527f6f6c6420726576696577657220616c7265616479207375626d697474656400006044820152606490fd5b60405162461bcd60e51b815260206004820152601960248201527f6f6c64207265766965776572206e6f74206f6e2070616e656c000000000000006044820152606490fd5b3461019f575f36600319011261019f57602060405160058152f35b3461019f57602036600319011261019f576004355f81815260036020908152604080832033845290915290205460ff1615610825575f52600460205260405f2060018060a01b0333165f52602052602060ff60405f205416604051908152f35b60405162461bcd60e51b815260206004820152602660248201527f796f752068617665206e6f74207375626d697474656420666f7220746869732060448201526572657669657760d01b6064820152608490fd5b3461019f575f36600319011261019f57602060405162093a808152f35b3461019f575f36600319011261019f575f5460405160089190911c6001600160a01b03168152602090f35b3461019f575f36600319011261019f57602060405160028152f35b3461019f575f36600319011261019f5760206108f66135b5565b604051908152f35b3461019f575f36600319011261019f57602060405160148152f35b3461019f57602036600319011261019f576004356109356130a4565b505f81815260016020526040902054610958906001600160a01b03161515612ccb565b5f52600160205260a0600860405f200161ffff6040519161097883612d0f565b5481808216938481528160208201818560101c168152816040840191818760201c1683528160806060870196828a60301c168852019760401c16875260405198895251166020880152511660408601525116606084015251166080820152f35b3461019f575f36600319011261019f576109f0613460565b6109f86130ce565b600160ff195f5416175f557f62e78cea01bee320cd4e420270b5ea74000d11b0c9f74754ebdbfc544b05a2586020604051338152a1005b3461019f57602036600319011261019f57600435610a4b6130e8565b5f81815260016020526040902054610a6d906001600160a01b03161515612ccb565b805f526001602052610a8c60018060a01b0360405f2054163314612e23565b805f52600160205260405f20601e81019081549060ff8216610aad81612bca565b8015908115610b70575b5015610b0e5760ff926003600593851916179055015416906040519182527f160ffc671f9b484218a8caeed5b3c0734dfe7a98c4edb237c919d92f9560f1d460203393a360015f51602061363d5f395f51905f5255005b60405162461bcd60e51b815260206004820152603460248201527f63616e6e6f742063616e63656c20612072657665616c6564206f7220616c72656044820152736164792d63616e63656c6c65642072657669657760601b6064820152608490fd5b60019150610b7d81612bca565b1485610ab7565b3461019f57604036600319011261019f57610b9d612cb5565b6004355f52600260205260405f209060018060a01b03165f52602052602060ff60405f2054166040519015158152f35b3461019f575f36600319011261019f57610be5613460565b5f8054610100600160a81b03198116825560081c6001600160a01b03167f8be0079c531659141344cd1fd0a4f28419497f9722a3daafe3b4186f6b6457e08280a3005b3461019f57606036600319011261019f576024356001600160401b03811161019f57610c58903690600401612c88565b906044356001600160401b03811161019f57610c78903690600401612c88565b610c839291926130ce565b610c8b6130e8565b6004355f90815260016020526040902054610cb0906001600160a01b03161515612ccb565b6004355f52600160205260405f2091601e830191600160ff845416610cd481612bca565b036113045760405195610160610cea8189612d2a565b600a8852601f19013660208901375f5b600a811015610d3b5760148187010154908851811015610d275760019160208260051b8b01015201610cfa565b634e487b7160e01b5f52603260045260245ffd5b509086915f6020610dd9610d5c8a610d5436878b612ebc565b963691612ebc565b7f9e7b61f58c47dc699ac88507c4f5bb9f121c03808c5676a8078fe583e4649702546040516378542ead60e01b8152606060048201529485936001600160a01b039092169284928391610dc7610db5606485018e613582565b8481036003190160248601528c612ba6565b83810360031901604485015290612ba6565b03925af19081156112f9575f916112ca575b50156112bb577fc6366bab028b8d033cb362cfd1f2f3457ef4e92fc738b6788b90d5a7846367a0610e3261014094610e408795604051938493604085526040850190613582565b908382036020850152612ba6565b0390a18101031261019f57610e5481613084565b91610e6160208301613084565b610e6d60408401613084565b90610e7a60608501613084565b92610e8760808601613084565b94610e9460a08201613084565b610ea060c08301613084565b610eac60e08401613084565b91610ec7610120610ec06101008701613084565b9501613084565b8554609882901b61ffff60981b16608887901b61ffff60881b166001600160a81b031990921660088e901b62ffff00161760188a901b64ffff000000161760288b901b66ffff0000000000161760388c901b68ffff00000000000000161760488d901b6affff0000000000000000001617605885901b61ffff60581b1617606886901b61ffff60681b1617607887901b61ffff60781b16179190911717600217909555604051608081905261010090610f81908290612d2a565b36608051375f60048c019081545b8082106111cd57505087948a948a9489948f948f95608051905f915f5b6008811061118a575050917fb8f8911757ad83c5a1cea9ffdd32089de42909e093d1c48330619f711ce1d1e79b9c959391601f6110059a9998969401555460a052604051998a996004359d6080519960a051998d612be8565b0390a260098601549560ff871661102a575b60015f51602061363d5f395f51905f5255005b60080154946110409061ffff8088169116612f01565b908560101c61ffff169061ffff169061105891612f01565b61106191612eaf565b908460201c61ffff169061ffff169061107991612f01565b61108291612eaf565b908360301c61ffff169061ffff169061109a91612f01565b6110a391612eaf565b9160401c61ffff169061ffff16906110ba91612f01565b6110c391612eaf565b60a051156111765763ffffffff9060a0519004165f9163ffffffff8160081c168210155f146111515760481c60ff1691505b6110fe82612bca565b8161110e575b8080808080611017565b6040519161111b81612bca565b825260208201527f478fa4eadb072ecc8de3b61be47ea0e9a1cf138e577e29f772c718de0071a835604060043592a28080611104565b63ffffffff8160281c168210611168575b506110f5565b60501c60ff16915082611162565b634e487b7160e01b5f52601260045260245ffd5b969b50969b50509095506001929750602091965060ff8551169060ff8560031b92831b921b191617930191019489948f948f95948f9994958f99968f9c97610fac565b9b98959260ff9b989592829e9b9895926004355f5260046020526111f560405f20918361304f565b905460039190911b1c6001600160a01b03165f90815260209190915260408120549e909d6008908f5b1610156112a15760ff8f8f82600191161b1616611248575b600860ff9e8f90600101169e8f61121e565b60ff6112588f8216608051613093565b511660ff811461128d5760ff9e8f908060089383600161127d82829616608051613093565b9201169052925050509d50611236565b634e487b7160e01b5f52601160045260245ffd5b9295989b9e909396999c5060019194979a9d500190610f8f565b63cf6c44e960e01b5f5260045ffd5b6112ec915060203d6020116112f2575b6112e48183612d2a565b8101906135e4565b87610deb565b503d6112da565b6040513d5f823e3d90fd5b60405162461bcd60e51b81526020600482015260136024820152721b9bdd08185dd85a5d1a5b99c81c995d99585b606a1b6044820152606490fd5b3461019f576101c036600319011261019f576004356001600160401b03811161019f57611370903690600401612c88565b6024356001600160401b03811161019f5761138f903690600401612c88565b9290604435906001600160401b03821161019f573660238301121561019f578160040135936001600160401b03851161019f576024830192602436918760051b01011161019f5760643560a036608319011261019f5760a03661012319011261019f576113fa6130ce565b6114026130e8565b8115611d685760028610611d235760148611611ce657610e10420180421161128d57811115611cad57600a604051838782376020818581016005815203019020541015611c695761271061149761148c61148161147661ffff611463612ff9565b1661ffff61146f61300a565b1690612eaf565b61ffff61146f61301b565b61ffff61146f61302c565b61ffff61146f61303d565b03611c19576114a4612f3b565b611ba4575b5f5b868110611a775750600654955f19871461128d5760018701600655865f52600160205260405f20336bffffffffffffffffffffffff60a01b825416178155600181016001600160401b0385116118e1576115058154612d4b565b601f8111611a47575b50845f601f82116001146119e2575f916119d7575b508560011b905f198760031b1c19161790555b600281016001600160401b038a116118e1576115528154612d4b565b8a601f821161199b575b90505f601f8211600114611937575f9161192c575b508a60011b905f198c60031b1c19161790555b60405184888237602081868101600581520301902054956001870180971161128d5760ff806003840198161660ff198854161787558360068301556004820190600160401b84116118e1578154848355808510611910575b50905f5260205f20905f5b8481106118f557505050601e8101805460ff191690556008810161ffff61160c612ff9565b1681549063ffff000061161d61300a565b60101b169065ffff0000000061163161301b565b60201b169067ffff00000000000061164761302c565b60301b169261ffff60401b61165a61303d565b60401b169461ffff60401b199267ffff000000000000199165ffffffffffff19161716171617171790556009810190611691612f3b565b151560ff801984541691161782556116a7612f4b565b9082549268ffffffff00000000006116bd612f5f565b60281b169361018435600481101561019f576116d881612bca565b6101a435600481101561019f57611818966013968261170169ff00000000000000000094612bca565b60ff60501b9060501b169464ffffffff0060ff60501b199260081b169069ffffffffffffffffff0019161716179160481b161717905561174d61174261352f565b80600a840155613401565b5061176461175961352f565b80600b840155613401565b5061177b61177061352f565b80600c840155613401565b5061179261178761352f565b80600d840155613401565b506117a961179e61352f565b80600e840155613401565b506117c06117b561352f565b80600f840155613401565b506117d76117cc61352f565b806010840155613401565b506117ee6117e361352f565b806011840155613401565b506118056117fa61352f565b806012840155613401565b5061180e61352f565b9182910155613401565b5060405183878237602081858101600581520301902094855494600160401b8610156118e1576020996118a560ff6118b29461187c8a8e9c60017fdbb27dc36e2027432c39fa8ac7750a87718c48215006b8239e76767f6b2a41ba9d01815561304f565b81549060031b908d821b915f19901b19161790555416996040519760a0895260a0890191613064565b918683038c880152613064565b956040840152606083015260808201528033940390a360015f51602061363d5f395f51905f5255604051908152f35b634e487b7160e01b5f52604160045260245ffd5b600190602061190384612f83565b93019281850155016115e7565b61192690835f528560205f209182019101612fe3565b8b6115dc565b90508601358b611571565b5f8381526020812092508c90601f198216905b818110611980575010611967575b505060018a811b019055611584565b8701355f1960038d901b60f8161c191690558a80611958565b8a84013585556001909401936020938401938f93500161194a565b6119c691835f5260205f20906020601f840160051c830193106119cd575b601f0160051c0190612fe3565b8a8a61155c565b90915081906119b9565b90508801358b611523565b5f8381526020812092508790601f198216905b8c828210611a2d57505010611a14575b5050600185811b019055611536565b8901355f19600388901b60f8161c191690558a80611a05565b84013585556001909401936020938401938a9350016119f5565b611a7190825f5260205f20601f880160051c810191602089106119cd57601f0160051c0190612fe3565b8a61150e565b6001600160a01b03611a92611a8d838a89612f73565b612f83565b1615611b6757611aba336001600160a01b03611ab2611a8d858c8b612f73565b161415612f97565b60065490815f52600260205260405f20611ad8611a8d838b8a612f73565b60018060a01b03165f5260205260ff60405f205416611b2d576001915f52600260205260405f20611b0d611a8d838b8a612f73565b838060a01b03165f5260205260405f208260ff19825416179055016114ab565b60405162461bcd60e51b8152602060048201526012602482015271323ab83634b1b0ba32903932bb34b2bbb2b960711b6044820152606490fd5b60405162461bcd60e51b81526020600482015260156024820152747a65726f207265766965776572206164647265737360581b6044820152606490fd5b611bac612f4b565b63ffffffff80611bba612f5f565b169116116114a95760405162461bcd60e51b815260206004820152602960248201527f70617373207468726573686f6c64206d75737420657863656564206661696c206044820152681d1a1c995cda1bdb1960ba1b6064820152608490fd5b60405162461bcd60e51b815260206004820152602260248201527f63617465676f72792077656967687473206d7573742073756d20746f20313030604482015261030360f41b6064820152608490fd5b606460405162461bcd60e51b815260206004820152602060248201527f6d617820726f756e6473207065722063616e64696461746520726561636865646044820152fd5b60405162461bcd60e51b81526020600482015260116024820152703232b0b23634b732903a37b79039b7b7b760791b6044820152606490fd5b60405162461bcd60e51b81526020600482015260156024820152741c995d9a595dd95c8818d85c08195e18d959591959605a1b6044820152606490fd5b60405162461bcd60e51b815260206004820152601960248201527f6e656564206174206c65617374203220726576696577657273000000000000006044820152606490fd5b60405162461bcd60e51b815260206004820152601c60248201527f63616e6469646174655265662063616e6e6f7420626520656d707479000000006044820152606490fd5b3461019f57602036600319011261019f576004356001600160401b03811161019f57611ddf6020913690600401612c88565b919082604051938492833781016005815203019020604051806020835491828152019081935f5260205f20905f5b818110611e655750505081611e23910382612d2a565b604051918291602083019060208452518091526040830191905f5b818110611e4c575050500390f35b8251845285945060209384019390920191600101611e3e565b8254845260209093019260019283019201611e0d565b3461019f575f36600319011261019f57602060ff5f54166040519015158152f35b3461019f575f36600319011261019f576020604051610e108152f35b3461019f57602036600319011261019f57600435611ed46130ce565b611edc6130e8565b5f81815260016020526040902054611efe906001600160a01b03161515612ccb565b805f526001602052611f1d60018060a01b0360405f2054163314612e23565b805f52600160205260405f20601e81018054611f3f60ff821661051e81612bca565b60ff6005840154166004840154036120ba5760ff19166001179055600a81018054611f6990613489565b50600b8201611f788154613489565b50600c8301611f878154613489565b50600d8401611f968154613489565b50600e8501611fa58154613489565b50600f8601611fb48154613489565b506010870191611fc48354613489565b506011880193611fd48554613489565b506012890195611fe48754613489565b5060138a0197611ff48954613489565b50604051996101408b018b81106001600160401b038211176118e157604052548a525460208a01525460408901525460608801525460808701525460a08601525460c08501525460e084015254610100830152546101208201525f5b600a81106120a357837fa2e9a51ecf5c26c51b5925d7c8d215626b780c665414c329b673a9314c645590610140601461208f8760405192839101612f14565ba260015f51602061363d5f395f51905f5255005b600190602083519301926014828601015501612050565b606460405162461bcd60e51b815260206004820152602060248201527f6e6f7420616c6c207265766965776572732068617665207375626d69747465646044820152fd5b3461019f575f36600319011261019f57612116613460565b5f5460ff8116156121535760ff19165f557f5db9ee0a495bf2e6ff9c91a7834c1ba4fdd244a5e8aa4e537bd38aeae4b073aa6020604051338152a1005b638dfc202b60e01b5f5260045ffd5b3461019f57604036600319011261019f5761217b612cb5565b6004355f52600360205260405f209060018060a01b03165f52602052602060ff60405f2054166040519015158152f35b3461019f575f36600319011261019f576020600654604051908152f35b3461019f5761010036600319011261019f5760043560c4356001600160401b03811161019f576121fc903690600401612c88565b919060e4359060ff821680920361019f576122156130ce565b61221d6130e8565b5f8381526001602052604090205461223f906001600160a01b03161515612ccb565b825f52600160205260405f209360ff601e8601541661225d81612bca565b61263f5760068501544211612604575f84815260026020908152604080832033845290915290205460ff16156125bf575f84815260036020908152604080832033845290915290205460ff166125865760ff831161254e576122c0368284612ebc565b6122cc90602435613120565b916122d8368383612ebc565b6122e490604435613120565b6122ef368484612ebc565b6122fb90606435613120565b91612307368583612ebc565b61231390608435613120565b93369061231f92612ebc565b61232b9060a435613120565b93600a88018181549061233d916132ca565b8155600b890183815490612350916132ca565b8155600c8a0185815490612363916132ca565b8155600d8b019187835490612377916132ca565b8355600e8c01938985549061238b916132ca565b8555600f8d01958654908061239f9161337d565b6123a8916132ca565b865560108d0196875490806123bc9161337d565b6123c5916132ca565b875560118d0197885490806123d99161337d565b6123e2916132ca565b885560128d0198895490806123f69161337d565b6123ff916132ca565b895560138d01998a5490806124139161337d565b61241c916132ca565b8a555461242890613401565b505461243390613401565b505461243e90613401565b505461244990613401565b505461245490613401565b505461245f90613401565b505461246a90613401565b505461247590613401565b505461248090613401565b505461248b90613401565b50815f52600360205260405f20600160a01b6001900333165f5260205260405f2060ff198154166001179055815f52600460205260405f20600160a01b6001900333165f5260205260405f209060ff1982541617905560058201805460ff1660010160ff811161128d5760049160ff8092168219825416178155541692015460405192835260208301527f10280f4ad2a48ab95b28960556389620cdf9d6376d4a869b77edade70d24786360403393a360015f51602061363d5f395f51905f5255005b60405162461bcd60e51b815260206004820152601060248201526f696e76616c696420746167206269747360801b6044820152606490fd5b60405162461bcd60e51b8152602060048201526011602482015270185b1c9958591e481cdd589b5a5d1d1959607a1b6044820152606490fd5b60405162461bcd60e51b815260206004820152601760248201527f6e6f7420616e20696e76697465642072657669657765720000000000000000006044820152606490fd5b60405162461bcd60e51b8152602060048201526013602482015272191958591b1a5b99481a185cc81c185cdcd959606a1b6044820152606490fd5b60405162461bcd60e51b815260206004820152601b60248201527f726576696577206e6f7420616363657074696e672073636f72657300000000006044820152606490fd5b3461019f57604036600319011261019f576004356024356126a36130ce565b6126ab6130e8565b5f828152600160205260409020546126cd906001600160a01b03161515612ccb565b815f5260016020526126ec60018060a01b0360405f2054163314612e23565b815f52600160205260405f2061270c60ff601e8301541661051e81612bca565b6007810180549160ff831661281c5760060192835491828211156127d75762093a80830180841161128d578211612792576001606094837f3979edc5de9ec4fc463e1bf3736bac7d9c05128c80af2f767f29c0ba88ac6ee9975560ff19161790556040519182526020820152336040820152a260015f51602061363d5f395f51905f5255005b60405162461bcd60e51b815260206004820152601f60248201527f657874656e73696f6e206578636565647320372d646179206d6178696d756d006044820152606490fd5b60405162461bcd60e51b815260206004820152601a60248201527f6e657720646561646c696e65206d757374206265206c617465720000000000006044820152606490fd5b60405162461bcd60e51b815260206004820152601960248201527f646561646c696e6520616c726561647920657874656e646564000000000000006044820152606490fd5b3461019f57602036600319011261019f5760043561010090816040516128878282612d2a565b3690375f818152600160205260409020546128ac906001600160a01b03161515612ccb565b5f52600160205260405f20601e81015490600260ff83166128cc81612bca565b036129a4578061293e60046129a09301549460ff601f6040519401548181168552818160081c166020860152818160101c166040860152818160181c166060860152818160201c166080860152818160281c1660a0860152818160301c1660c086015260381c1660e084015282612d2a565b604051938361ffff869560981c169061ffff8160881c169061ffff8160781c169061ffff8160681c169061ffff8160581c169061ffff8160481c169061ffff8160381c169061ffff8160281c169061ffff808260181c169160081c168d612be8565b0390f35b60405162461bcd60e51b815260206004820152601060248201526f1b9bdd081e595d081c995d99585b195960821b6044820152606490fd5b3461019f57602036600319011261019f576004355f81815260016020526040902054612a12906001600160a01b03161515612ccb565b5f52600160205260405f2060018060a01b0381541660ff6003830154166006830154600484015460ff60058601541660ff601e870154169160ff60078801541693612a9a612a6e6002612a6760018c01612d83565b9a01612d83565b612a8c6040519a8b9a8b5261012060208c01526101208b0190612ba6565b9089820360408b0152612ba6565b956060880152608087015260a086015260c0850152612ab881612bca565b60e084015215156101008301520390f35b3461019f57602036600319011261019f576004355f81815260016020526040902054612aff906001600160a01b03161515612ccb565b5f526001602052600460405f2001604051806020835491828152019081935f5260205f20905f5b818110612b875750505081612b3c910382612d2a565b604051918291602083019060208452518091526040830191905f5b818110612b65575050500390f35b82516001600160a01b0316845285945060209384019390920191600101612b57565b82546001600160a01b0316845260209093019260019283019201612b26565b805180835260209291819084018484015e5f828201840152601f01601f1916010190565b60041115612bd457565b634e487b7160e01b5f52602160045260245ffd5b99979593919c9b9a98969492909c6102608b019d61ffff168b5261ffff1660208b015261ffff1660408a015261ffff16606089015261ffff16608088015261ffff1660a087015261ffff1660c086015261ffff1660e085015261ffff1661010084015261ffff16610120830152610140820152610160015f905b60088210612c6f57505050565b60208060019260ff865116815201930191019091612c62565b9181601f8401121561019f578235916001600160401b03831161019f576020838186019501011161019f57565b602435906001600160a01b038216820361019f57565b15612cd257565b60405162461bcd60e51b81526020600482015260156024820152741c995d9a595dc8191bd95cc81b9bdd08195e1a5cdd605a1b6044820152606490fd5b60a081019081106001600160401b038211176118e157604052565b90601f801991011681019081106001600160401b038211176118e157604052565b90600182811c92168015612d79575b6020831014612d6557565b634e487b7160e01b5f52602260045260245ffd5b91607f1691612d5a565b9060405191825f825492612d9684612d4b565b8084529360018116908115612e015750600114612dbd575b50612dbb92500383612d2a565b565b90505f9291925260205f20905f915b818310612de5575050906020612dbb928201015f612dae565b6020919350806001915483858901015201910190918492612dcc565b905060209250612dbb94915060ff191682840152151560051b8201015f612dae565b15612e2a57565b60405162461bcd60e51b815260206004820152601e60248201527f63616c6c6572206973206e6f7420746865207265766965772061646d696e00006044820152606490fd5b15612e7657565b60405162461bcd60e51b8152602060048201526011602482015270726576696577206e6f742061637469766560781b6044820152606490fd5b9190820180921161128d57565b9291926001600160401b0382116118e15760405191612ee5601f8201601f191660200184612d2a565b82948184528183011161019f578281602093845f960137010152565b8181029291811591840414171561128d57565b905f905b600a8210612f2557505050565b6001602081928554815201930191019091612f18565b61012435801515810361019f5790565b6101443563ffffffff8116810361019f5790565b6101643563ffffffff8116810361019f5790565b9190811015610d275760051b0190565b356001600160a01b038116810361019f5790565b15612f9e57565b60405162461bcd60e51b815260206004820152601a60248201527f61646d696e2063616e6e6f7420626520612072657669657765720000000000006044820152606490fd5b818110612fee575050565b5f8155600101612fe3565b60843561ffff8116810361019f5790565b60a43561ffff8116810361019f5790565b60c43561ffff8116810361019f5790565b60e43561ffff8116810361019f5790565b6101043561ffff8116810361019f5790565b8054821015610d27575f5260205f2001905f90565b908060209392818452848401375f828201840152601f01601f1916010190565b359061ffff8216820361019f57565b906008811015610d275760051b0190565b604051906130b182612d0f565b5f6080838281528260208201528260408201528260608201520152565b60ff5f54166130d957565b63d93c066560e01b5f5260045ffd5b60025f51602061363d5f395f51905f5254146131115760025f51602061363d5f395f51905f5255565b633ee5aeb560e01b5f5260045ffd5b81519091901561322f575f5160206135fd5f395f51905f525460405163045fc19560e11b815260048101939093523360248401526080604484015260209183916001600160a01b03169082905f90829061317e906084830190612ba6565b6003606483015203925af19081156112f9575f916131fd575b505f51602061361d5f395f51905f52546001600160a01b0316803b1561019f57604051630f8e573b60e21b815260048101839052336024820152905f908290818381604481015b03925af180156112f9576131f0575090565b5f6131fa91612d2a565b90565b90506020813d602011613227575b8161321860209383612d2a565b8101031261019f57515f613197565b3d915061320b565b5080156132c1575f51602061361d5f395f51905f52546040516382027b6d60e01b81526004810183905233602482015290602090829060449082906001600160a01b03165afa9081156112f9575f916132a2575b501561328c5790565b630276b5d960e01b5f526004523360245260445ffd5b6132bb915060203d6020116112f2576112e48183612d2a565b5f613283565b506131fa61352f565b90811561336d575b801561335b575b602090606460018060a01b035f5160206135fd5f395f51905f525416935f604051958694859363022f65e760e31b8552600485015260248401528160448401525af19081156112f9575f9161332c575090565b90506020813d602011613353575b8161334760209383612d2a565b8101031261019f575190565b3d915061333a565b50602061336661352f565b90506132d9565b905061337761352f565b906132d2565b9081156133f1575b80156133df575b602090606460018060a01b035f5160206135fd5f395f51905f525416935f6040519586948593630afe14ad60e31b8552600485015260248401528160448401525af19081156112f9575f9161332c575090565b5060206133ea61352f565b905061338c565b90506133fb61352f565b90613385565b8015613452575b5f51602061361d5f395f51905f52546001600160a01b0316803b1561019f57604051635ca4b5b160e11b815260048101839052306024820152905f908290818381604481016131de565b5061345b61352f565b613408565b5f5460081c6001600160a01b0316330361347657565b63118cdaa760e01b5f523360045260245ffd5b8015613521575b604080519061349f8183612d2a565b6001825260208201601f198201368237825115610d27578390525f51602061361d5f395f51905f52546001600160a01b0316803b1561019f578151637d6e912360e11b815260206004820152925f918491829084908290613504906024830190613582565b03925af190811561351857506131f0575090565b513d5f823e3d90fd5b5061352a61352f565b613490565b5f5160206135fd5f395f51905f5254604051639cd07acb60e01b81525f60048201819052600360248301529091602091839160449183916001600160a01b03165af19081156112f9575f9161332c575090565b90602080835192838152019201905f5b81811061359f5750505090565b8251845260209384019390920191600101613592565b466001036135c257600190565b4662aa36a7036135d25761271190565b617a6946146135df575f90565b5f1990565b9081602091031261019f5751801515810361019f579056fe9e7b61f58c47dc699ac88507c4f5bb9f121c03808c5676a8078fe583e46497019e7b61f58c47dc699ac88507c4f5bb9f121c03808c5676a8078fe583e46497009b779b17422d0df92223018b32b4d1fa46e071723d6817e2486d003becc55f00a2646970667358221220a0da9a289c12057f1efa00fe5502a8d10f6aa78e52f1d65b42ef2b94d8a8457964736f6c634300081b0033",
  "linkReferences": {},
  "deployedLinkReferences": {}
}